:020000040800F2
:1000000000500020594A0008A30C0008A50C000865
:10001000A70C0008A90C0008AB0C000800000000A9
:10002000000000000000000000000000AD0C00080F
:10003000AF0C000800000000B10C0008B30C000871
:10004000A14A0008A14A0008A14A0008A14A0008E4
:10005000A14A0008A14A0008A14A0008A14A0008D4
:10006000A14A0008A14A0008A14A0008A14A0008C4
:10007000A14A0008A14A0008A14A0008A14A0008B4
:10008000A14A0008A14A0008A14A0008A14A0008A4
:10009000BD0C0008A14A0008A14A0008A14A0008B6
:1000A000A14A0008A14A0008A14A0008A14A000884
:1000B000A14A0008A14A0008A14A0008A14A000874
:1000C000A14A0008A14A0008A14A0008A14A000864
:1000D000A14A0008A14A0008A14A0008A14A000854
:1000E000A14A0008A14A0008A14A00080000000037
:1000F0000000000000000000000000000000000000
:0C01000000000000000000005FF808F1A3
:10010C000348044B834202D0034B03B1184770479A
:10011C00D4010020D4010020000000000548064B4B
:10012C001B1AD90F01EBA301491002D0034B03B1E9
:10013C0018477047D4010020D401002000000000B3
:10014C0010B5064C237843B9FFF7DAFF044B13B113
:10015C000448AFF300800123237010BDD4010020AC
:10016C0000000000A44A000808B5044B1BB1044968
:10017C000448AFF30080BDE80840CFE70000000062
:10018C00D8010020A44A000870B50F4B0F4DAB42AC
:10019C00A3EB050607D00024B61055F8043B013438
:1001AC009847A642F9D804F077FC094D094B5E1B21
:1001BC00AB424FEAA60606D0002455F8043B0134A6
:1001CC009847A642F9D870BDE84C0008E84C0008E6
:1001DC00E84C0008EC4C000870B5860747D0541E5C
:1001EC00002A3ED00346CAB201E0013C39D303F8E1
:1001FC00012B9D07F9D1032C2CD9CDB205EB05258C
:10020C000F2C1A4605EB054534D9A4F1100C2CF033
:10021C000F0603F1100EB6444FEA1C1CC2E9005540
:10022C00C2E9025510327245F8D10CF1010214F0FA
:10023C000C0F03EB021204F00F0C13D0ACF10403FF
:10024C0023F003030433134442F8045B9342FBD1C1
:10025C000CF003042CB1C9B21C4403F8011BA342DB
:10026C00FBD170BD64461346002CF4D1F9E703466C
:10027C001446C0E7A446E1E72DE9F04F8BB0484B9C
:10028C009A6942F001029A619A6902F001020192A4
:10029C00019A44494A6822F0E06242F000724A60D6
:1002AC0006AC002506950795089509959A6942F0C4
:1002BC0004029A619A6902F004020292029A9A6903
:1002CC0042F008029A619A6902F008020392039ABA
:1002DC009A6942F010029A619A6902F01002049233
:1002EC00049A9A6942F020029A619B6903F02003F8
:1002FC000593059B40F2F64306934FF01109CDF898
:10030C001C904FF00208CDF82480DFF89CA0214609
:10031C00504603F051FA4FF638430693234E2146CC
:10032C00304603F049FA40F209330693079501274A
:10033C0008972146504603F03FFA40F203330693E8
:10034C002146304603F038FA4FF4005BCDF818B074
:10035C0007970895CDF824800AF5006A2146504687
:10036C0003F02AFA3A465946504603F036FBC023AE
:10037C000693CDF81C900895CDF824802146304684
:10038C0003F01AFA3A464021304603F026FB3A466F
:10039C008021304603F021FB0BB0BDE8F08F00BF8D
:1003AC00001002400000014000080140000C014018
:1003BC004FF0804300225A624FF080435B6A8342C5
:1003CC00FAD3704730B585B000F053FC00F098FBC1
:1003DC0005468DF80C0000F093FB04468DF80D00DB
:1003EC0000F08EFB8DF80E0005F003054200D2B232
:1003FC00524252B2244B1B78002B35D0EAB902F092
:10040C0029FE224B1B68C01A962802D9204B0022C9
:10041C001A801F4BB3F900300A2B17DD1C4B00223E
:10042C001A804FF0FF33009500221146194804F052
:10043C009BFA194B1D7005B030BD154B19880A4439
:10044C001A8002F007FE114B1860D8E713F10A0F5F
:10045C0004DA0F4B00221A800123E4E70E4B1B78C1
:10046C00AB42E8D00023DEE7640061B221B91AB9CF
:10047C00094B1B78AB42DED000950023054804F0F5
:10048C0073FA054B1D70D6E760020020F4010020C2
:10049C00F801002064020020F001002072B6FEE793
:1004AC0000B587B000230293039304930593009344
:1004BC00019315484FF08042026030224260836005
:1004CC004FF6FF72C2600361836103F09BFBA8B916
:1004DC004FF48053029302A90B4803F0CBFB78B97D
:1004EC000023009301936946074803F031FC48B997
:1004FC00054803F01FFB07B05DF804FBFFF7CEFFC8
:10050C00FFF7CCFFFFF7CAFF1802002010B594B01C
:10051C000AAC282200212046FFF75EFE002305933B
:10052C0006930793089309930193029303930493FF
:10053C0001220A924FF480330B930E9202221192F5
:10054C0012934FF4E0131393204602F0B3FDB8B9A5
:10055C000F23059302210691002307934FF4806229
:10056C000892099305A802F0E5FF58B910230193EE
:10057C000023049301A803F093F828B914B010BD1C
:10058C00FFF78CFFFFF78AFFFFF788FF70B584B089
:10059C0002F042FDFFF7BAFFFFF76EFE00F0BCFB66
:1005AC00FFF77EFF4FF47A7002F05AFD00F066FB05
:1005BC005EE0454E0221304604F023FA642002F03E
:1005CC004FFD0021304604F01CFA404B00221A5516
:1005DC000134A54255DD3D4B1B5D3E2BE9D03F2B35
:1005EC0011D03B2BF4D1384E0421304604F009FADB
:1005FC00642002F035FD0021304604F002FA334B42
:10060C0000221A55E4E7304E0121304604F0F9F986
:10061C00642002F025FD0021304604F0F2F92B4B4A
:10062C0000221A55D4E70024D3E70133052B0BDC49
:10063C00264AD25C264911F803C06245F5D0CA544B
:10064C000120F2E7002025E030B3224C2246294657
:10065C001E4800F0B1F8092221461B4804F0B5F9F8
:10066C000A2002F0FDFCFFF7ADFE0A2002F0F8FCB8
:10067C000621164800F03AF80546174B1B78002B5C
:10068C00D1D1164B1C78164B1B789C42DAD0144BEC
:10069C001C7001200023C9E795B98CB9114B1B784C
:1006AC00002BDDD101A901934B600B7201248DF855
:1006BC0004400922044804F088F90A4B1C70CFE767
:1006CC00094B00221A70CBE76402002010020020B4
:1006DC0008020020FC0100206002002062020020C1
:1006EC0061020020FA010020160200202DE9F84FCB
:1006FC0083468A4600232A4A137003E000220BF833
:10070C00032001339A45F9DC0025A846A9462EE0C2
:10071C00234B01221A700134072C22DC214B03EBF2
:10072C00C402918853F8340003F050F90028F2D138
:10073C001D4B03EBC5031B5D832BE9D013B143EABF
:10074C000808E8E7194B03EBC5031B5D002BE2D04F
:10075C00D145E0D209F101020BF809305FFA82F9B8
:10076C00D9E701223946304603F037F901350F2D10
:10077C000FDC0F4B53F8356003EBC5039F88002249
:10078C003946304603F029F90A20FFF711FE002400
:10079C00C2E7084B83F800804846BDE8F88F00BFDD
:1007AC0060020020BC4B0008BC4A00083C4B00080F
:1007BC00FC4B000862020020002304E04FF0000C08
:1007CC0002F803C00133082BF8DD012313700D4B25
:1007DC001B78537000239370052B11DC99420EDDAE
:1007EC0000B501E0994208DD03F1030C10F803E0B9
:1007FC0002F80CE00133052BF4DD5DF804FB7047C7
:10080C00704700BF620200202DE9F0410646994C6A
:10081C0000224021204603F0E0F8002280212046EF
:10082C0003F0DBF801224021204603F0D6F8924C6D
:10083C0000E0013C40218F4803F0C8F808B1002CBF
:10084C00F7D1002C00F0328100274FF0010818E09E
:10085C00FF242046BDE8F081002C00F02981864C55
:10086C0000E0013C4021834803F0B0F818B1002CA3
:10087C00F7D1FF24EDE7002C00F01C8188EA050875
:10088C000137072F16DC46FA07F505F001052A4655
:10089C008021784803F0A1F80A20FFF789FD764CF7
:1008AC004021744803F092F80028D5D1002CCFD009
:1008BC00013CF5E7424680216E4803F08EF80A2091
:1008CC00FFF776FD6C4C00E0013C4021694803F0D9
:1008DC007DF808B9002CF7D1002C00F0ED80664CA7
:1008EC004021644803F072F810B10CB1013CF7E7F9
:1008FC00002C00F0E380012280215E4803F06DF8AB
:10090C005D4C00E0013C80215A4803F05FF808B1CF
:10091C00002CF7D1002C00F0D380574C00E0013CA8
:10092C004021544803F052F808B1002CF7D1002CA8
:10093C0000F0C880504C00E0013C80214D4803F091
:10094C0045F808B9002CF7D1002C00F0BD804A4CBA
:10095C0000E0013C4021474803F038F808B9002C6E
:10096C00F7D1002C00F0B280434C00E0013C802118
:10097C00404803F02BF808B1002CF7D1002C00F004
:10098C00A7803D4C00E0013C40213A4803F01EF8A2
:10099C0008B1002CF7D1002C00F09C80364C00E004
:1009AC00013C4021334803F011F808B9002CF7D171
:1009BC00002C00F09180304C00E0013C40212D488F
:1009CC0003F004F808B1002CF7D1002C00F086805D
:1009DC004FF000080127444627E0013D40212548FF
:1009EC0002F0F4FF18B9002DF7D1FF2431E7002DE8
:1009FC0076D080211F4802F0E9FF064620B101267F
:100A0C0006FA08F32343DCB21B4D4021194802F0CF
:100A1C00DDFF20B10DB1013DF7E7FF2419E7002DF3
:100A2C0060D07E40F7B208F10108B8F1070F01DC85
:100A3C00114DD3E7104D00E0013D40210D4802F06F
:100A4C00C5FF08B9002DF7D1002D4DD080210948E4
:100A5C0002F0BCFFB84249D1074D00E0013D4021F6
:100A6C00044802F0B3FF08B1002DF7D1002D3FD0A0
:100A7C00014D04E0000C0140A0860100013D8021E5
:100A8C001D4802F0A3FF08B9002DF7D195B31B4DFB
:100A9C0000E0013D4021184802F098FF08B9002DF4
:100AAC00F7D1002D7FF4D5AEFF24D2E6FF24D0E69B
:100ABC00FF24CEE6FF24CCE6FF24CAE6FF24C8E6DA
:100ACC00FF24C6E6FF24C4E6FF24C2E6FF24C0E6EA
:100ADC00FF24BEE6FF24BCE6FF24BAE6FF24B8E6FA
:100AEC00FF24B6E6FF24B4E6FF24B2E6FF24B0E60A
:100AFC00FF24AEE6FF24ACE6000C0140A08601000A
:100B0C002DE9F041564C8021564802F05FFF10B1A0
:100B1C000CB1013CF7E7002C00F08C80504C00E04D
:100B2C00013C40214F4802F051FF08B1002CF7D195
:100B3C00002C00F083804A4C00E0013C40214948E5
:100B4C0002F044FF08B9002CF7D1002C78D0444CAB
:100B5C004021444802F03AFF10B10CB1013CF7E7D8
:100B6C00002C6FD04FF000080127464628E0013CCE
:100B7C0040213C4802F02AFF18B9002CF7D1FF267F
:100B8C0059E0002C60D08021364802F01FFF05464A
:100B9C0020B1012505FA08F33343DEB2304C00E0F6
:100BAC00013C40212F4802F011FF18B1002CF7D165
:100BBC00FF2640E0002C49D07D40EFB208F101083F
:100BCC00B8F1070F01DC264CD2E7254C00E0013CC4
:100BDC004021244802F0FAFE08B9002CF7D1002C71
:100BEC0036D080211F4802F0F1FEB84232D11C4CA5
:100BFC0000E0013C40211B4802F0E8FE08B1002C4B
:100C0C00F7D14CB3164C00E0013C8021154802F0A2
:100C1C00DDFE08B9002CF7D104B3114C00E0013C07
:100C2C004021104802F0D2FE08B9002CF7D114B9BB
:100C3C00FF2600E0FF263046BDE8F081FF26FAE7EC
:100C4C00FF26F8E7FF26F6E7FF26F4E7FF26F2E794
:100C5C00FF26F0E7FF26EEE7FF26ECE7FF26EAE7A4
:100C6C00A0860100000C014008B5FF20FFF7CCFD69
:100C7C0008BD08B5EB20FFF7C7FD08BD08B5FFF7A9
:100C8C00F3FF012002F0ECF9F020FFF7BDFD01208D
:100C9C0002F0E6F908BDFEE7FEE7FEE7FEE7FEE739
:100CAC0070477047704708B502F0C8F908BD0000DE
:100CBC0008B5024800F06DFF08BD00BF3C070020DE
:100CCC0082B00A4B9A6942F001029A619A6902F069
:100CDC0001020092009ADA6942F08052DA61DB6913
:100CEC0003F080530193019B02B070470010024047
:100CFC000368B3F1804F00D0704782B003F5043322
:100D0C00DA6942F00102DA61DB6903F00103019355
:100D1C00019B02B07047000008B500220B490C483B
:100D2C0003F04DF848B90B49094803F05FF838B99E
:100D3C00074803F062F830B908BDFFF7AFFBF2E7E4
:100D4C00FFF7ACFBF4E7FFF7A9FBF5E73400002055
:100D5C00640200209C01002012230B800048704785
:100D6C002000002004230B80004870471C0000204A
:100D7C00002393421ED200B510E00CF1370C01F8A1
:100D8C0013C000014FEA430C0CF1010C4FF0000EA4
:100D9C0001F80CE00133DBB2934209D24FEA107C2C
:100DAC00B0F1204FE9D20CF1300C01F813C0E8E798
:100DBC005DF804FB7047000038B50B4BD3F8E8071F
:100DCC00D3F8EC47D3F8F037C01800D138BD074D35
:100DDC0008222946FFF7CCFF042205F1100120461A
:100DEC00FFF7C6FFF2E700BF00F0FF1F0200002074
:100DFC0008B51A230B80FFF7DFFF014808BD00BFC1
:100E0C000000002008B50A4628B90549054803F03A
:100E1C004CFC034808BD0249024803F046FCF8E7C5
:100E2C00280500207C4C000810B50A46034C2146CE
:100E3C00034803F03AFC204610BD00BF28050020F3
:100E4C00944C000808B50A4628B90549054803F032
:100E5C002CFC034808BD0249024803F026FCF8E7C5
:100E6C0028050020A84C000808B50A4628B90549F1
:100E7C00054803F01AFC034808BD0249024803F078
:100E8C0014FCF8E728050020B44C0008022805D80B
:100E9C00DFE800F0050402000120704702207047D3
:100EAC0002680E4B9A4200D0704700B583B003F530
:100EBC00DA33DA6942F40002DA61DB6903F4000325
:100ECC000193019B00221146142002F0D3FD142043
:100EDC0002F0E0FD03B05DF804FB00BF005C0040D5
:100EEC0008B500F52C71D0F8E80202F09EFF08BDA1
:100EFC0008B501EB810300EBC303D3F87C21D0F8D8
:100F0C00E80202F0BFFF08BD08B501EB810300EB5E
:100F1C00C303DA6BD0F8E80202F0FAFF08BD08B59B
:100F2C00D0F8E80203F09BF808BD10B504468368BE
:100F3C00022B09D10121D4F8E80203F079F8D4F896
:100F4C00E80203F04DF810BDFFF7A8FAF2E7000035
:100F5C0010B50446D0F8E80203F06DF8A36923B18C
:100F6C00024A136943F00603136110BD00ED00E063
:100F7C0008B5D0F8E80203F067F808BD10B50446D0
:100F8C001648C0F8E842C4F8C002154B03600823A9
:100F9C0043600223836000238361C361036200F01A
:100FAC000FF9B8B9182300221146D4F8C00201F089
:100FBC000FF8582300228021D4F8C00201F008F861
:100FCC004FF4807300228121D4F8C00201F000F8A4
:100FDC00002010BDFFF762FAE4E700BF3C070020D9
:100FEC00005C004008B5D0F8C00200F075F9FFF7BE
:100FFC004DFF08BD08B594461A466346D0F8C002AA
:10100C0000F0B1FEFFF742FF08BD08B5D0F8C002F2
:10101C0000F0EBFEFFF73AFF08BD08B5D0F8C002B0
:10102C0000F05FFFFFF732FF08BD08B5D0F8C00233
:10103C0000F093FFFFF72AFF08BDD0F8C03211F083
:10104C00800F08D101F07F0101EB810103EBC1039B
:10105C0093F86A01704701F07F01013101EB8101C6
:10106C0003EBC1039878704708B5D0F8C00200F0C4
:10107C007CFDFFF70BFF08BD08B5D0F8C00200F0EF
:10108C0008FFFFF703FF08BD08B5D0F8C00200F059
:10109C00DEFEFFF7FBFE08BD004870472807002066
:1010AC007047704738B512F4804F44D00468B4F8D8
:1010BC0050309BB291F800C003EBCC03023304EB2D
:1010CC004304B4F80044C4F309048B69A34228D345
:1010DC001B1B8B618B697BB9056835F82C309BB277
:1010EC0023F4804323F0700383F4005343F4004350
:1010FC0043F0800325F82C3012F0400F0ED002681C
:10110C000D7832F825309BB223F4E04323F07003C2
:10111C0043F4004343F0C00322F8253024B92046A1
:10112C0038BD00238B61D5E723460A8949690068DD
:10113C0001F034FFF3E70468B4F850309BB291F837
:10114C0000C003EBCC03063304EB4304B4F80044B7
:10115C00C4F309048B69A3422FD31B1B8B618B69CE
:10116C007BB9056835F82C309BB223F4804323F00F
:10117C00700383F4005343F4004343F0800325F8D9
:10118C002C3012F0400F0FD1026891F800C032F8E9
:10119C002C309BB223F4E04323F0700343F4004360
:1011AC0043F0C00322F82C30002CB8D023464A89D7
:1011BC004969006801F0F2FEB1E700238B61CEE7CC
:1011CC0070B586B0002800F08580044690F8A932EE
:1011DC00EBB1032384F8A932206800F025FF2546E3
:1011EC0055F8106BEC460FCDACE80F002B68CCF823
:1011FC000030231D0ECB304600F006FF054658B1DB
:10120C00022384F8A9320125284606B070BD80F867
:10121C00A832FFF745FEDCE70021206800F00EFF46
:10122C002B461AE05A1C02EB820104EBC10101208F
:10123C00487002EB820104F8313003EB830104EBBC
:10124C00C101CB8602EB820C04EBCC0C00208CF899
:10125C0003008863C8630864D3B261688B42E1D32E
:10126C0016E005EB850304EBC303002283F8692128
:10127C0083F8685183F86B21C3F87821C3F87C217B
:10128C0005EB850304EBC303C3F880210135EDB2F4
:10129C00A942E6D8254655F8106BEC460FCDACE8C4
:1012AC000F002B68CCF80030231D0ECB304600F01D
:1012BC00C7FE054620B1022384F8A9320125A3E715
:1012CC00002384F82430012384F8A932206801F02B
:1012DC00EDF999E7012597E738B590F8A832012B7D
:1012EC0011D00446012580F8A852006800F093FE46
:1012FC0029462046FFF7D5FE206801F0D5F90020DD
:10130C0084F8A80238BD0220FCE770B505460C46EF
:10131C00164612F0400F00F00D810268B2F8503002
:10132C009BB2097803EBC103023302EB4302B2F820
:10133C000024C2F30902A369934252D99B1AA361F8
:10134C00A369002B6AD16378002B4DD12B68B3F8BD
:10135C00502092B2134403EB0113B3F8042492B25D
:10136C0022F4F84292B2A3F80424B3F804246FEAEE
:10137C0042426FEA524292B2A3F804242B6862787C
:10138C00002A3ED1B3F8502092B21344227803EBDA
:10139C000213B3F80C2492B222F4F84292B2A3F8DE
:1013AC000C24B3F80C246FEA42426FEA524292B218
:1013BC00A3F80C2421782846FFF7A6FD16F4804FDD
:1013CC0041D02A68217832F821309BB223F4E043D3
:1013DC0023F0700343F4404343F0800322F82130A0
:1013EC0031E00023A361ABE7012BC7D12B68B3F825
:1013FC00502092B2134403EB01130022A3F80424EF
:10140C00BCE7012AD6D1B3F8502092B2134422780B
:10141C0003EB02130022A3F80C24CBE716F4804F45
:10142C000DD0286830F821309BB223F4E04323F030
:10143C00700343F4404343F0800320F8213094F8C8
:10144C002430012B12D02A68217832F821309BB23B
:10145C0023F4E04323F0400383F0300343F40043D0
:10146C0043F0800322F82130002070BD63691344DF
:10147C006361E3691344E361216A236999421FD3D1
:10148C00C91A21626278002A3FD12A68B2F850103A
:10149C0089B20A44217802EB0112EBB9B2F80414B8
:1014AC0089B221F4F84189B2A2F80414B2F80414F8
:1014BC006FEA41416FEA514189B2A2F8041426E067
:1014CC0021B9002384F824301346DBE7002384F889
:1014DC00243023620B46D5E73E2B09D8590813F06C
:1014EC00010F00D00131890289B2A2F804140EE078
:1014FC00590913F01F0F00D101396FEAC1616FEA6E
:10150C00514189B2A2F8041401E0012A06D09BB221
:10151C0022896169286801F0D1F894E72A68B2F849
:10152C00501089B20A44217802EB011299B2A2F848
:10153C000414ECE70268B2F850309BB2097803EB64
:10154C00C103063302EB4302B2F80024C2F30902D2
:10155C00A369934253D39B1AA361A369002B6BD14C
:10156C006378002B4ED12B68B3F8502092B2134401
:10157C0003EB0113B3F8042492B222F4F84292B2B2
:10158C00A3F80424B3F804246FEA42426FEA5242EF
:10159C0092B2A3F804242B686278002A3FD1B3F8E6
:1015AC00502092B21344227803EB0213B3F80C24AC
:1015BC0092B222F4F84292B2A3F80C24B3F80C24A1
:1015CC006FEA42426FEA524292B2A3F80C2421789D
:1015DC002846FFF799FC16F4804F7FF434AF2A6845
:1015EC00217832F821309BB223F4E04323F07003CE
:1015FC0043F4404343F0800322F8213023E70023D7
:10160C00A361AAE7012BC6D12B68B3F8502092B284
:10161C00134403EB01130022A3F80424BBE7012AB3
:10162C00D5D1B3F8502092B21344227803EB0213B5
:10163C000022A3F80C24CAE716F4804F0DD12868B9
:10164C0030F821309BB223F4E04323F0700343F4D1
:10165C00404343F0800320F8213094F82430012BD0
:10166C007FF4F1AE636913446361E3691344E3618E
:10167C00216A236999421FD3C91A21622A686178A9
:10168C0000293ED1B2F8501089B20A44217802EBFD
:10169C000112EBB9B2F80C1489B221F4F84189B2F9
:1016AC00A2F80C14B2F80C146FEA41416FEA5141E4
:1016BC0089B2A2F80C1426E021B9002384F8243056
:1016CC001346DBE70023236284F824300B46D5E76E
:1016DC003E2B09D8590813F0010F00D001318902B3
:1016EC0089B2A2F80C140EE0590913F01F0F00D1A7
:1016FC0001396FEAC1616FEA514189B2A2F80C1449
:10170C0001E0012906D09BB262896169286800F06A
:10171C00D5FF98E6B2F8501089B20A44217802EB52
:10172C00011299B2A2F80C14EDE72DE9F04105462F
:10173C002868B0F8443013F4004F00F01382B0F86E
:10174C004440A3B214F00F0440F0D88013F0100FF3
:10175C0061D003889AB213F4006F40F0938012F4B6
:10176C00004FE5D0038823F070031B051B0D43F0DD
:10177C00800303802868B0F850309BB295F868213C
:10178C0003EBC203063300EB4303B3F80034C3F39B
:10179C000903C5F884318BB1D5F87C1171B1B5F85A
:1017AC006E2101F0FBFBD5F87C31D5F88421134474
:1017BC00C5F87C3100212846FFF79AFB2B681A8864
:1017CC0012F4006FB4D1B3F8502092B21344D5F890
:1017DC007821002A79D1B3F80C2492B222F4F84281
:1017EC0092B2A3F80C24B3F80C246FEA42426FEACD
:1017FC00524292B2A3F80C242A6813889BB223F4A9
:10180C00804323F0700383F4405343F4004343F0CC
:10181C00800313808CE703889BB223F4E14323F00D
:10182C0070036FEA43436FEA53439BB203802A6809
:10183C00B2F850309BB295F8281003EBC103023379
:10184C0002EB4302B2F80034C3F309036B64EA6B96
:10185C001A44EA6300212846FFF756FB95F824301A
:10186C00002B3FF465AF2B6C002B7FF461AF95F828
:10187C0024302A6843F08003A2F84C30002385F80A
:10188C00243055E7B0F850309BB295F8682103EB43
:10189C00C203063300EB4303B3F80034C3F309036C
:1018AC00C5F88431B5F86E2105F52C7101F076FB85
:1018BC002A68138823F070031B051B0D43F080036B
:1018CC0013802846FFF70CFB32E73E2A09D8510853
:1018DC0012F0010F00D001318A0292B2A3F80C244D
:1018EC008AE7510912F01F0F00D101396FEAC1626A
:1018FC006FEA524292B2A3F80C247DE730F8243000
:10190C009EB213F4004F4FD116F0800F3FF410AF7E
:10191C00621C02EB820105EBC101286830F824300F
:10192C009BB223F4E14323F070036FEA43436FEA65
:10193C0053439BB220F82430CB78032B07D033B120
:10194C00022B40F00A8116F4807F40F00681286853
:10195C00B0F850309BB2621C02EB820215F8326078
:10196C0003EBC603023300EB4303B3F80034C3F3B9
:10197C00090304EB840205EBC202126C9A4240F29A
:10198C00D48004EB840705EBC707D21A3A6404EB46
:10199C00840205EBC202126C002A40F0CD80314665
:1019AC002846FFF7B1FAC3E630F8243023F0700371
:1019BC001B051B0D43F0800320F8243004EB84013D
:1019CC00C90001F5B47105EB010804EB840305EBC8
:1019DC00C30393F87431002B42D12868B0F850300F
:1019EC009BB204EB840205EBC20292F8682103EB74
:1019FC00C203063300EB4303B3F80074C7F30907C3
:101A0C0017BB04EB840305EBC303D3F884213A44DE
:101A1C00C3F88421D3F87C213A44C3F87C21D3F851
:101A2C0080313BB104EB840305EBC303D3F878316D
:101A3C009F4275D204EB840305EBC30393F8681142
:101A4C002846FFF755FA5FE704EB840105EBC1016B
:101A5C003B46B1F86E21D1F87C1101F09FFAD0E72A
:101A6C0004EB840305EBC30393F86B31022B35D0E5
:101A7C00296804EB840205EBC20292F8680131F884
:101A8C0020309BB223F4E04323F0700343F4004373
:101A9C0043F0C00321F82030286892F8682130F810
:101AAC00223013F4804F20D0B0F850309BB203EBAF
:101ABC00C203023300EB4303B3F80074C7F3090706
:101ACC00002F9ED004EB840105EBC1013B46B1F81D
:101ADC007021D1F87C1101F061FA92E7324641464F
:101AEC002846FFF7DFFA07468BE7B0F850309BB279
:101AFC0003EBC203063300EB4303B3F80074C7F3E4
:101B0C000907002F3FF47DAF04EB840105EBC10105
:101B1C003B46B1F87221D1F87C1101F03FFA70E725
:101B2C004146286800F0DDFDEEE604EB840205EB8F
:101B3C00C202002717642AE704EB840205EBC202F9
:101B4C00D66B1E44D663526C04EB840405EBC404C0
:101B5C001344636400F0C5FDEAE532462846FFF7FE
:101B6C00D4FBE5E50020BDE8F08190F8A832012B0C
:101B7C000DD010B50446012380F8A83280F824104B
:101B8C00006800F08BFD002084F8A80210BD022034
:101B9C00704710B584B00446006800F089FD10F45D
:101BAC00004F47D1206800F083FD10F4806F45D1C1
:101BBC00206800F07DFD10F4804F08D02268B2F848
:101BCC0044309BB223F480439BB2A2F8443020688B
:101BDC0000F06EFD10F4005F08D02268B2F84430BB
:101BEC009BB223F400539BB2A2F84430206800F05F
:101BFC005FFD10F4805F32D1206800F059FD10F4C5
:101C0C00006F78D1206800F053FD10F4007F40F095
:101C1C009D80206800F04CFD10F4807F08D0226875
:101C2C00B2F844309BB223F480739BB2A2F84430D8
:101C3C0004B010BD2046FFF778FDB3E72268B2F878
:101C4C0044309BB223F480639BB2A2F8443020460C
:101C5C00FFF76BF900212046FFF787FFA8E7226802
:101C6C00B2F840309BB223F004039BB2A2F8403090
:101C7C002268B2F840309BB223F008039BB2A2F862
:101C8C0040302046FFF774F92268B2F844309BB21A
:101C9C0023F480539BB2A2F84430ADE7226832F8AB
:101CAC00231004AA02EB430222F8101C0133DBB20E
:101CBC00072BF3D92268B2F840309BB243F00103F2
:101CCC00A2F840302268B2F840309BB223F00103F6
:101CDC009BB2A2F840302368B3F8442012F4806F12
:101CEC00F9D0B3F8442092B222F4806292B2A3F8F5
:101CFC00442000230BE00023DAE7226804A901EB5F
:101D0C00430131F8101C22F823100133DBB2072BEE
:101D1C00F3D92268B2F840309BB243F00803A2F822
:101D2C0040302268B2F844309BB223F400639BB27B
:101D3C00A2F844302268B2F840309BB243F004035E
:101D4C00A2F840302046FFF703F95BE72268B2F8AF
:101D5C0044309BB223F400739BB2A2F8443020466B
:101D6C00FFF7DDF855E710B504468C4611F0800FEF
:101D7C002AD101F0070000EB8001C90001F5B47E07
:101D8C0004EB0E0100EB800004EBC0004FF0000EE2
:101D9C0080F869E10CF0070C81F800C00A61CB7087
:101DAC004A780AB1A1F80EC0022B19D094F8A832C7
:101DBC00012B18D0012384F8A832206800F051F9C7
:101DCC00002084F8A80210BD01F00700013000EBE0
:101DDC00800104EBC1014FF0010E81F801E0D9E75D
:101DEC0000230B71E2E70220EDE710B504460B4629
:101DFC0011F0800F1FD101F0070202EB8201C90024
:101E0C0001F5B471014402EB820200EBC202002026
:101E1C0082F8690103F007030B7094F8A832012BC8
:101E2C0013D0012384F8A832206800F0D6FA0020E1
:101E3C0084F8A80210BD01F00702013202EB820106
:101E4C0000EBC10101204870E4E70220F2E710B575
:101E5C0001F0070404EB8401C90001F5B4710144DD
:101E6C0004EB840C00EBCC0CCCF87C21CCF880314E
:101E7C000023CCF884318CF869318CF8684124B992
:101E8C00006800F02EFC002010BD006800F029FC5A
:101E9C00F9E710B501F0070404F1010C0CEB8C010F
:101EAC0000EBC10104EB840E00EBCE0ECEF83C200F
:101EBC00CEF8403001228EF84C20CEF8483000236A
:101ECC00CEF844304A700CEB8C0C00F83C4024B932
:101EDC00006800F006FC002010BD006800F001FC5A
:101EEC00F9E738B501F007054268954231D8044648
:101EFC000B4611F0800F1ED101EB8101C90001F5D9
:101F0C00B471014403EB830300EBC303002283F899
:101F1C00692101238B700D7094F8A832012B1AD013
:101F2C00012384F8A832206800F042FB5DB1002048
:101F3C0084F8A80238BD6B1C03EB830100EBC101D4
:101F4C0001224A70E5E704F52C71206800F0B4FB1F
:101F5C00EDE70120EEE70220ECE70B4601F00F0164
:101F6C004268914230D810B5044613F0800F21D14D
:101F7C0003F0070202EB8201C90001F5B4710144C0
:101F8C0002EB820200EBC202002082F869010022FF
:101F9C008A7003F007030B7094F8A832012B15D04C
:101FAC00012384F8A832206800F027FB002084F875
:101FBC00A80210BD03F00702013202EB820100EB14
:101FCC00C10101204870E2E7012070470220F0E7D0
:101FDC0011F0800F0BD001F00701013101EB8101F1
:101FEC0000EBC10052B90273C3800020704701EBB3
:101FFC008101C90001F5B4710844F3E701220273B1
:10200C0003811B0C4381F0E784B001A880E80E002B
:10201C00002004B0704703460020A3F844004FF49E
:10202C003F42A3F840207047B0F8403023F47C5373
:10203C005B045B0CA0F84030002070470020704718
:10204C0084B0844601A880E80E000123ACF840302F
:10205C000020ACF84000ACF84400ACF8500004B0E0
:10206C00704710B5034691F800C030F82C2092B29E
:10207C0022F4EC4222F0700292B2C878032861D8A4
:10208C00DFE800F0555C0258002048F2800E42EA6E
:10209C000E0223F82C2091F800C033F82C2092B2B9
:1020AC0022F4E04222F0700242EA0C0242EA0E02F2
:1020BC0023F82C200A7B002A40F0C4804A78002A9E
:1020CC0051D0B3F8502092B21A440C7802EB04129F
:1020DC00B1F806C04FEA5C0C4FEA4C0CA2F800C4F5
:1020EC000C7833F8242012F0400F0CD033F8242055
:1020FC0092B222F4E04222F0700242F4004242F02A
:10210C00C00223F82420CA78012A1DD0097833F89C
:10211C00212092B222F4E04222F0400282F020020E
:10212C0042F4004242F0800223F821206AE042F49B
:10213C000072AAE742F4C0620020A6E742F4806273
:10214C000020A2E70120A0E7097833F8212092B201
:10215C0022F4E04222F0400242F4004242F08002BB
:10216C0023F821204EE0B3F8502092B21A440C7898
:10217C0002EB0412B1F806C04FEA5C0C4FEA4C0CAF
:10218C00A2F808C4B3F8502092B21A440C7802EBAF
:10219C0004120C69BCBBB2F80CC41FFA8CFC2CF4F6
:1021AC00F84C1FFA8CFCA2F80CC4B2F80CC46FEA01
:1021BC004C4C6FEA5C4C1FFA8CFCA2F80CC40C78EB
:1021CC0033F8242012F4804F0CD033F8242092B230
:1021DC0022F4E04222F0700242F4404242F08002CB
:1021EC0023F82420097833F8212092B222F480427B
:1021FC0022F0700282F4405242F4004242F080021B
:10220C0023F8212010BD3E2C0DD84FEA540C14F0AD
:10221C00010F01D00CF1010C4FEA8C2C1FFA8CFC35
:10222C00A2F80CC4CBE74FEA541C14F01F0F01D1D9
:10223C000CF1FF3C6FEACC646FEA5444A4B2A2F8F0
:10224C000C44BCE791F800C033F82C2092B222F475
:10225C00E04222F0700242F4014242F0800223F884
:10226C002C20B3F8502092B21A4491F800C002EB23
:10227C000C12B1F808C04FEA5C0C4FEA4C0CA2F8F7
:10228C0000C4B3F8502092B21A4491F800C002EB8B
:10229C000C12B1F80AC04FEA5C0C4FEA4C0CA2F8D5
:1022AC0008C44A78002A41D10C7833F8242012F45F
:1022BC00804F0CD033F8242092B222F4E04222F06A
:1022CC00700242F4404242F0800223F824200C7841
:1022DC0033F8242012F0400F0CD033F8242092B2A3
:1022EC0022F4E04222F0700242F4004242F0C002BA
:1022FC0023F8242091F800C033F82C2092B222F459
:10230C00804222F0700282F4405248F28004224350
:10231C0023F82C20097833F8212092B222F4E042E1
:10232C0022F04002224323F821206BE70C7833F88B
:10233C00242012F4804F0CD033F8242092B222F4D3
:10234C00E04222F0700242F4404242F0800223F854
:10235C0024200C7833F8242012F0400F0CD033F8E2
:10236C00242092B222F4E04222F0700242F40042A5
:10237C0042F0C00223F82420CA78012A1ED00C781F
:10238C0033F8242092B222F4E04222F0400282F090
:10239C00200242F4004242F0800223F82420097803
:1023AC0033F8212092B222F4804222F0700242F4DF
:1023BC00004242F0800223F8212023E70C7833F806
:1023CC00242092B222F4E04222F0400242F4004275
:1023DC0042F0800223F82420E1E70B7B002B46D14E
:1023EC004B7813B30A7830F8223013F0400F0CD02E
:1023FC0030F822309BB223F4E04323F0700343F413
:10240C00004343F0C00320F822300A7830F8223021
:10241C009BB223F4E04323F0400343F4004343F026
:10242C00800320F82230002070470A7830F82230E0
:10243C0013F4804F0CD030F822309BB223F4E043DD
:10244C0023F0700343F4404343F0800320F8223020
:10245C000A7830F822309BB223F4804323F07003C7
:10246C0043F4004343F0800320F82230DBE74B7841
:10247C00002B4ED10A7830F8223013F4804F0CD058
:10248C0030F822309BB223F4E04323F0700343F482
:10249C00404343F0800320F822300A7830F8223091
:1024AC0013F0400F0CD030F822309BB223F4E043F1
:1024BC0023F0700343F4004343F0C00320F82230B0
:1024CC000A7830F822309BB223F4E04323F07003F7
:1024DC0043F4004343F0C00320F822300A7830F86C
:1024EC0022309BB223F4804323F0700348F2800C1B
:1024FC0043EA0C0320F822300A7830F822309BB2E1
:10250C0023F4E04323F0400343EA0C0320F8223089
:10251C0089E70A7830F8223013F4804F0CD030F869
:10252C0022309BB223F4E04323F0700343F4404386
:10253C0043F0800320F822300A7830F8223013F070
:10254C00400F0CD030F822309BB223F4E04323F040
:10255C00700343F4004343F0C00320F822300A78A0
:10256C0030F822309BB223F4E04323F0700343F4A1
:10257C00404343F0800320F822300A7830F82230B0
:10258C009BB223F4E04323F0400348F2800C43EA6F
:10259C000C0320F822300A7830F822309BB223F456
:1025AC00804323F0700343EA0C0320F822303AE70F
:1025BC004B788BB10A7830F822309BB223F4E0438D
:1025CC0023F0400383F0100343F4004343F08003F3
:1025DC0020F82230002070470A7830F822309BB265
:1025EC0023F4804323F0700383F4805343F40043BB
:1025FC0043F0800320F82230ECE70B7B002B4BD10F
:10260C004B7833B30A7830F8223013F0400F0CD0EB
:10261C0030F822309BB223F4E04323F0700343F4F0
:10262C00004343F0C00320F82230CB78012B33D089
:10263C000A7830F822309BB223F4E04323F04003B5
:10264C0083F0200343F4004343F0800320F822304E
:10265C0022E00A7830F8223013F4804F0CD030F896
:10266C0022309BB223F4E04323F0700343F4404345
:10267C0043F0800320F822300A7830F822309BB2E5
:10268C0023F4804323F0700383F4405343F400435A
:10269C0043F0800320F822300020704711B98023CA
:1026AC00A0F84C3000207047002070470020704785
:1026BC00B0F8440080B270470020704701335B08CB
:1026CC0000EB420000F5806008E00A7891F801C048
:1026DC0042EA0C2220F8042B0231013B002BF4D1EE
:1026EC00704770B505460C464B78012B37D00A7BEA
:1026FC00002A40F026838B690A69934240F20483D6
:10270C009B1A8B61B5F850309BB22B44217803EBAC
:10271C000113002A40F0FC82B3F80C2492B222F48C
:10272C00F84292B2A3F80C24B3F80C246FEA42429C
:10273C006FEA524292B2A3F80C24227835F8223078
:10274C009BB223F4804323F0700383F4405343F48F
:10275C00004343F0800325F82230002070BD8E69C1
:10276C000A69964200D91646237B002B39D0E378B0
:10277C00022B58D0227835F822309BB223F4E04358
:10278C0023F0700343F4014343F0800325F8223017
:10279C00236A9B1B2362237835F8232012F0400F09
:1027AC0000F026826278002A40F0CA81B5F85020E9
:1027BC0092B22A4402EB0313002E40F0A881B3F826
:1027CC000C2492B222F4F84292B2A3F80C24B3F87F
:1027DC000C246FEA42426FEA524292B2A3F80C24E4
:1027EC00B0E1B6B23346E28861692846FFF766FF6E
:1027FC00B5F850309BB22B44227803EB0213A3F8AC
:10280C000464227835F822309BB223F4E04323F0A1
:10281C00400383F0300343F4004343F0800325F876
:10282C00223000209AE7236A9A4280F05281227863
:10283C0035F822309BB223F4E04323F0700343F4C9
:10284C00014343F0800325F82230236A9B1B23624B
:10285C00237835F8232012F0400F00F09D80627829
:10286C008ABBB5F8502092B22A4402EB03138EB9FE
:10287C00B3F80C2492B222F4F84292B2A3F80C24CE
:10288C00B3F80C246FEA42426FEA524292B2A3F8B8
:10289C000C241AE03E2E09D8720816F0010F00D055
:1028AC000132920292B2A3F80C240EE0720916F0D7
:1028BC001F0F00D1013A6FEAC2626FEA524292B224
:1028CC00A3F80C2401E0012A2BD0B3B26289616910
:1028DC002846FFF7F3FE636933446361236A226978
:1028EC00934228D99B1B23626378002B40D1B5F807
:1028FC0050309BB22B44227803EB0213FEB9B3F891
:10290C00042492B222F4F84292B2A3F80424B3F84D
:10291C0004246FEA42426FEA524292B2A3F80424B2
:10292C0028E0B5F8502092B22A4402EB0313B2B25D
:10293C00A3F80C24C9E7002222621E46D4E73E2EDF
:10294C0009D8720816F0010F00D00132920292B22F
:10295C00A3F804240EE0720916F01F0F00D1013AFF
:10296C006FEAC2626FEA524292B2A3F8042401E009
:10297C00012B06D0B3B2228961692846FFF79EFE6F
:10298C003FE7B5F850309BB22B44227803EB02138F
:10299C00B2B2A3F80424EDE762788ABBB5F85020F4
:1029AC0092B22A4402EB03138EB9B3F8042492B208
:1029BC0022F4F84292B2A3F80424B3F804246FEA88
:1029CC0042426FEA524292B2A3F804241AE03E2E1D
:1029DC0009D8720816F0010F00D00132920292B29F
:1029EC00A3F804240EE0720916F01F0F00D1013A6F
:1029FC006FEAC2626FEA524292B2A3F8042401E079
:102A0C00012A2BD0B3B2228961692846FFF756FE02
:102A1C00636933446361236A2269934228D99B1BFF
:102A2C0023626378002B40D1B5F850309BB22B4415
:102A3C00227803EB0213FEB9B3F80C2492B222F401
:102A4C00F84292B2A3F80C24B3F80C246FEA424279
:102A5C006FEA524292B2A3F80C2428E0B5F8502049
:102A6C0092B22A4402EB0313B2B2A3F80424C9E7CE
:102A7C00002222621E46D4E73E2E09D8720816F0B8
:102A8C00010F00D00132920292B2A3F80C240EE096
:102A9C00720916F01F0F00D1013A6FEAC2626FEA99
:102AAC00524292B2A3F80C2401E0012B06D0B3B22F
:102ABC00628961692846FFF701FEA2E6B5F850303D
:102ACC009BB22B44227803EB0213B2B2A3F80C2472
:102ADC00EDE7217835F8212092B222F4E24222F07F
:102AEC00700242F4004242F0800225F82120B5F831
:102AFC00502092B22A44217802EB01129BB2A2F828
:102B0C000434228961692846FFF7D8FD79E63E2E08
:102B1C0009D8720816F0010F00D00132920292B25D
:102B2C00A3F80C240EE0720916F01F0F00D1013A25
:102B3C006FEAC2626FEA524292B2A3F80C2401E02F
:102B4C00012A26D0B3B2628961692846FFF7B6FD27
:102B5C00636933446361236A2269934223D99B1BC3
:102B6C002362002E3FF44DAE63786BBBB5F850304A
:102B7C009BB22B44227803EB02133E2E17D872081B
:102B8C0016F0010F00D00132920292B2A3F8042485
:102B9C001CE0B5F8502092B22A4402EB0313B2B2F7
:102BAC00A3F80C24CEE7002222621E46D9E7720954
:102BBC0016F01F0F00D1013A6FEAC2626FEA52425F
:102BCC0092B2A3F8042401E0012B06D0B3B22289FF
:102BDC0061692846FFF772FD13E6B5F850309BB2D9
:102BEC002B44227803EB0213B2B2A3F80424EDE7D2
:102BFC0062788ABBB5F8502092B22A4402EB0313D8
:102C0C008EB9B3F8042492B222F4F84292B2A3F82B
:102C1C000424B3F804246FEA42426FEA524292B29F
:102C2C00A3F804241AE03E2E09D8720816F0010FFE
:102C3C0000D00132920292B2A3F804240EE0720981
:102C4C0016F01F0F00D1013A6FEAC2626FEA5242CE
:102C5C0092B2A3F8042401E0012A26D0B3B222894F
:102C6C0061692846FFF72AFD636933446361236A6F
:102C7C002269934223D99B1B2362002E3FF4C1ADE2
:102C8C0063786BBBB5F850309BB22B44227803EBC6
:102C9C0002133E2E17D8720816F0010F00D0013225
:102CAC00920292B2A3F80C241CE0B5F8502092B218
:102CBC002A4402EB0313B2B2A3F80424CEE7002299
:102CCC0022621E46D9E7720916F01F0F00D1013A95
:102CDC006FEAC2626FEA524292B2A3F80C2401E08E
:102CEC00012B06D0B3B2628961692846FFF7E6FC76
:102CFC0087E5B5F850309BB22B44227803EB0213D6
:102D0C00B2B2A3F80C24EDE700228A611A46F9E46A
:102D1C003E2A09D8510812F0010F00D00131890266
:102D2C0089B2A3F80C1408E5510912F01F0F00D159
:102D3C0001396FEAC1616FEA514189B2A3F80C14F1
:102D4C00FBE4CA78022A45D0012A40F02481896923
:102D5C002269914240F2D880891AA161D3B9B5F8A1
:102D6C0050309BB22B44217803EB0113002A40F026
:102D7C00CF80B3F8041489B221F4F84189B2A3F8D6
:102D8C000414B3F804146FEA41416FEA514189B25B
:102D9C00A3F804146378002B40F0EE80B5F85030A3
:102DAC009BB22B44217803EB0113002A40F0C9801D
:102DBC00B3F80C2492B222F4F84292B2A3F80C2489
:102DCC00B3F80C246FEA42426FEA524292B2A3F873
:102DDC000C24B2E4CBB9B0F850309BB203440A785F
:102DEC0003EB02130A6972BBB3F8042492B222F407
:102DFC00F84292B2A3F80424B3F804246FEA4242D6
:102E0C006FEA524292B2A3F804246378002B4CD19F
:102E1C00B5F850309BB22B44227803EB0213226995
:102E2C0052BBB3F80C2492B222F4F84292B2A3F83B
:102E3C000C24B3F80C246FEA42426FEA524292B26D
:102E4C00A3F80C2433E03E2A09D8510812F0010FE4
:102E5C0000D001318A0292B2A3F80424D5E75109BB
:102E6C0012F01F0F00D101396FEAC1626FEA5242B2
:102E7C0092B2A3F80424C8E73E2A09D8510812F0EC
:102E8C00010F00D001318A0292B2A3F80C240EE09B
:102E9C00510912F01F0F00D101396FEAC1626FEABC
:102EAC00524292B2A3F80C2401E0012B1CD0E3692E
:102EBC00002B3FF442AC227835F8223099B213F44F
:102ECC00804F1CD011F0400F3FF437AC35F8223056
:102EDC009BB223F4E04323F0700343F4004343F02C
:102EEC00C00325F8223028E4B5F850309BB22B44AF
:102EFC00227803EB0213228AA3F80C24D7E711F0F3
:102F0C00400F7FF41AACE1E70022A2610A4625E7E4
:102F1C003E2A09D8510812F0010F00D00131890264
:102F2C0089B2A3F8041435E7510912F01F0F00D130
:102F3C0001396FEAC1616FEA514189B2A3F80414F7
:102F4C0028E73E2A0AD8510812F0010F00D00131AF
:102F5C008A0292B2A3F80C24FFF7EFBB510912F0CE
:102F6C001F0F00D101396FEAC1626FEA524292B26F
:102F7C00A3F80C24FFF7E1BB012B7FF4DEABB5F813
:102F8C0050309BB22B44217803EB011392B2A3F87F
:102F9C000C24FFF7D2BB0120FFF7E0BB10B45C0898
:102FAC0000EB420000F5806007E030F8042B0A705B
:102FBC00C2F307224A700231013C002CF5D113F008
:102FCC00010F01D003880B7010BC704710B504467C
:102FDC000E4B1A784FF47A73B3FBF2F30C4A106869
:102FEC00B0FBF3F000F064FD68B90F2C01D901209F
:102FFC000AE0002221464FF0FF3000F03BFD054B6C
:10300C001C60002000E0012010BD00BF500000201B
:10301C00580000205400002008B5074A136843F0FC
:10302C0010031360032000F013FD0F20FFF7CEFFF9
:10303C00FDF746FE002008BD00200240034A11683F
:10304C00034B1B780B441360704700BF280A002009
:10305C0050000020014B1868704700BF280A002060
:10306C0038B50446FFF7F6FF0546B4F1FF3F02D032
:10307C00044B1B781C44FFF7EDFF401BA042FAD316
:10308C0038BD00BF5000002082B0084B1B68084AB6
:10309C00A2FB03235B0A00FB03F3019300BF019B1C
:1030AC005A1E0192002BF9D102B070475800002033
:1030BC00D34D6210002800F0F18170B582B0044647
:1030CC00036813F0010F2CD0994B5B6803F00C03D1
:1030DC00042B1DD0964B5B6803F00C03082B12D00D
:1030EC006368B3F5803F41D0002B55D103F1804389
:1030FC0003F504331A6822F480321A601A6822F439
:10310C0080221A6037E08A4B5B6813F4803FE7D06B
:10311C00874B1B6813F4003F03D06368002B00F04F
:10312C00BF81236813F0020F75D0814B5B6813F0DD
:10313C000C0F5FD07E4B5B6803F00C03082B54D054
:10314C002369002B00F08A807A4B01221A60FFF76A
:10315C0081FF0546764B1B6813F0020F75D1FFF704
:10316C0079FF401B0228F5D903209EE1704A1368B1
:10317C0043F480331360636843B3FFF76BFF05467A
:10318C006B4B1B6813F4003FCBD1FFF763FF401B65
:10319C006428F5D9032088E1B3F5A02F09D0644B3E
:1031AC001A6822F480321A601A6822F480221A609B
:1031BC00E1E703F18043A3F53C331A6842F4802223
:1031CC001A601A6842F480321A60D4E7FFF742FFA3
:1031DC000546574B1B6813F4003FA2D0FFF73AFF8C
:1031EC00401B6428F5D903205FE1514B5B6813F455
:1031FC00803FA5D14E4B1B6813F0020F03D02369FF
:10320C00012B40F04F814A4A136823F0F80361699F
:10321C0043EAC1031360236813F0080F33D0A3698A
:10322C00002B5CD0434B0122C3F88024FFF712FF24
:10323C0005463F4B5B6A13F0020F21D1FFF70AFFE3
:10324C00401B0228F5D903202FE1394A136823F0DB
:10325C00F803616943EAC1031360DCE7354B0022D4
:10326C001A60FFF7F7FE0546314B1B6813F0020F8F
:10327C00D1D0FFF7EFFE401B0228F5D9032014E153
:10328C000120FFF701FF236813F0040F00F0968074
:10329C00274BDB6913F0805F34D1254BDA6942F0A0
:1032AC008052DA61DB6903F080530193019B0125A5
:1032BC00214B1B6813F4807F26D0E368012B3DD093
:1032CC00002B53D103F1804303F504331A6A22F027
:1032DC0001021A621A6A22F004021A6233E0154BD8
:1032EC000022C3F88024FFF7B5FE0546104B5B6A3D
:1032FC0013F0020FC7D0FFF7ADFE401B0228F5D923
:10330C000320D2E00025D3E70B4A136843F4807303
:10331C001360FFF79FFE0646074B1B6813F4807F74
:10332C00CBD1FFF797FE801B6428F5D90320BCE0B6
:10333C000010024000004242007000405F4A136AD5
:10334C0043F001031362E36833B3FFF783FE0646D1
:10335C005A4B1B6A13F0020F2FD1FFF77BFE801B19
:10336C0041F288339842F3D903209EE0052B09D013
:10337C00524B1A6A22F001021A621A6A22F00402F3
:10338C001A62E0E74D4B1A6A42F004021A621A6A9A
:10339C0042F001021A62D6E7FFF75CFE0646474B85
:1033AC001B6A13F0020F08D0FFF754FE801B41F28A
:1033BC0088339842F3D9032077E0E5B9E369002B11
:1033CC0072D03E4A526802F00C02082A56D0022BE8
:1033DC0017D03B4B00221A66FFF73CFE0446374BD6
:1033EC001B6813F0007F47D0FFF734FE001B022848
:1033FC00F5D9032059E0314AD36923F08053D361C6
:10340C00DCE72F4B00221A66FFF724FE05462B4BF8
:10341C001B6813F0007F06D0FFF71CFE401B022830
:10342C00F5D9032041E0236AB3F5803F1AD0234934
:10343C004B6823F47413226A606A024313434B6093
:10344C001F4B01221A66FFF705FE04461B4B1B6837
:10345C0013F0007F0ED1FFF7FDFD001B0228F5D9FC
:10346C00032022E0154A536823F40033A1680B4370
:10347C005360DCE7002018E0002016E0012B16D08A
:10348C000E4B5B6803F48031226A914211D103F434
:10349C007013626A93420ED1002006E0012070473F
:1034AC00012002E0012000E0002002B070BD0120EC
:1034BC00FBE70120F9E70120F7E700BF001002400D
:1034CC000000424286B0174B0FCB0DF1180C0CE9E3
:1034DC000F0040F20123ADF80430134B5B6803F08E
:1034EC000C02082A02D0114806B07047C3F383427D
:1034FC0018326A4412F8100C13F4803F0DD00A4BAA
:10350C005B68C3F3404318336B4413F8143C074A0D
:10351C0002FB00F0B0FBF3F0E6E7054B03FB00F019
:10352C00E2E700BFC44C00080010024000127A0011
:10353C0000093D00002800F0A08070B50D4604463F
:10354C00524B1B6803F007038B420BD24F4A136894
:10355C0023F007030B431360136803F007038B423C
:10356C0040F08D80236813F0020F17D013F0040F76
:10357C0004D0474A536843F4E0635360236813F064
:10358C00080F04D0424A536843F460535360404AD6
:10359C00536823F0F003A1680B435360236813F0C6
:1035AC00010F31D06368012B20D0022B25D0384A73
:1035BC00126812F0020F64D035494A6822F00302F7
:1035CC0013434B60FFF746FD0646314B5B6803F037
:1035DC000C036268B3EB820F16D0FFF73BFD801B28
:1035EC0041F288339842F0D9032045E0284A12680A
:1035FC0012F4003FE0D101203EE0254A126812F09F
:10360C00007FD9D1012037E0204B1B6803F0070362
:10361C00AB420AD91D4A136823F007032B431360EE
:10362C00136803F00703AB422DD1236813F0040F8A
:10363C0006D0174A536823F4E063E1680B435360E8
:10364C00236813F0080F07D0114A536823F4605312
:10365C00216943EAC1035360FFF734FF0C4B5B68ED
:10366C00C3F303130B4AD35CD8400B4B18600B4BC2
:10367C001868FFF7ABFC002070BD012070470120DB
:10368C00FAE70120F8E70120F6E700BF002002402E
:10369C0000100240D84C00085800002054000020B4
:1036AC0070B582B00446036813F0010F36D03F4B5F
:1036BC00DB6913F0805F4AD13C4BDA6942F08052EF
:1036CC00DA61DB6903F080530193019B0125384BD0
:1036DC001B6813F4807F3CD0344B1B6A13F440738B
:1036EC0013D0626802F440729A420ED02F4A136AC9
:1036FC0023F440702F490126C1F840640026C1F81C
:10370C004064106213F0010F37D1284A136A23F476
:10371C00407361680B431362002D3FD1236813F093
:10372C00020F06D0214A536823F44043A1680B438F
:10373C005360236813F0100F35D01C4A536823F4E0
:10374C008003E1680B435360002002B070BD00257C
:10375C00BDE7174A136843F480731360FFF77AFCD4
:10376C000646134B1B6813F4807FB5D1FFF772FC30
:10377C00801B6428F5D90320E7E7FFF76BFC0646AE
:10378C000A4B1B6A13F0020FBFD1FFF763FC801BBF
:10379C0041F288339842F3D90320D6E7D36923F05A
:1037AC008053D361BAE70020CFE700BF001002407E
:1037BC00007000400000424270B582B00024A44664
:1037CC009EE07C4DAB4214D00CD8A5F58015AB42D5
:1037DC000FD005F57025AB420BD0A5F58015AB428B
:1037EC001FD106E0744DAB4203D005F58035AB42DA
:1037FC0017D18B68A3B1012B0DD04261082410E0C6
:10380C00CC680EE0CC6804340BE0CC68083408E0DB
:10381C00CC680C3405E00261082402E0002400E0CE
:10382C000424BEF1FF0F37D806464FEA8C023368EA
:10383C000F25954023EA050304FA02F21343336083
:10384C004B6813F0805F59D05C4B9A6942F00102CF
:10385C009A619B6903F001030193019B4FEA9C025F
:10386C00951C574B53F825600CF00305AD000F2346
:10387C00AB4026EA0306534B984214D003F5806301
:10388C00984279D003F58063984277D003F5806332
:10389C00984206D0042307E0061DACF10802920002
:1038AC00C5E7032300E00023AB4033430232444D11
:1038BC0045F822304B6813F4803F61D0424A1368BC
:1038CC0043EA0E0313604B6813F4003F5ED03E4A8C
:1038DC00536843EA0E0353604B6813F4801F5BD0AC
:1038EC00394A936843EA0E0393604B6813F4001F44
:1038FC0058D0354AD36843EA0E03D3600CF1010C5F
:10390C000B6833FA0CF253D0012202FA0CF203EAE0
:10391C00020E32EA0303F1D14B68122B3FF651AF82
:10392C00122B3FF67EAF01A555F823F0FF370008A8
:10393C000D38000817380008293800082F380008FF
:10394C002F3800082F3800082F3800082F380008AF
:10395C002F3800082F3800082F3800082F3800089F
:10396C002F3800082F3800082F3800082F3800088F
:10397C00113800081D380008012395E7022393E74E
:10398C00114A136823EA0E0313609CE70E4A53682E
:10399C0023EA0E0353609FE70B4A936823EA0E0356
:1039AC009360A2E7084AD36823EA0E03D360A5E725
:1039BC0002B070BD00002210000031100010024057
:1039CC0000000140000801400004014083681942D6
:1039DC0001D001207047002070470AB10161704787
:1039EC000904016170470000002808DB0901C9B215
:1039FC0000F1604000F5614080F80013704700F062
:103A0C000F000901C9B2014B1954704714ED00E0C5
:103A1C0000B500F00700C0F1070CBCF1040F28BF83
:103A2C004FF0040C031D062B0FD9C31E4FF0FF3EA5
:103A3C000EFA0CF021EA000199400EFA03FE22EA7C
:103A4C000E0241EA02005DF804FB0023EEE70000E1
:103A5C00074AD36823F4E0631B041B0C000200F438
:103A6C00E060034343F0BF6343F40033D36070471B
:103A7C0000ED00E010B50446054BD868C0F30220F9
:103A8C00FFF7C6FF01462046FFF7AEFF10BD00BF93
:103A9C0000ED00E0002807DB00F01F0240090123C5
:103AAC009340024A42F82030704700BF00E100E02A
:103ABC000138B0F1807F0BD24FF0E0235861054AFA
:103ACC00F02182F823100020986107221A617047B8
:103ADC000120704700ED00E010B4036A046A24F082
:103AEC0001040462846924F0F00C4CEA021223F005
:103AFC000A030B438261036210BC704710B4036A63
:103B0C0023F0100303628469036A24F4704C4CEABA
:103B1C00023223F0A00343EA01138261036210BC5A
:103B2C007047836823F070030B4343F007038360F3
:103B3C007047000090F83D30012B22D1022380F811
:103B4C003D300368114A934210D0B3F1804F0DD031
:103B5C00A2F59432934209D002F58062934205D0CB
:103B6C001A6842F001021A60002070479A6802F04D
:103B7C000702062A07D01A6842F001021A600020D8
:103B8C007047012070470020704700BF002C014097
:103B9C0003681B4A90420AD0B0F1804F07D0A2F5BF
:103BAC009432904203D002F58062904203D123F00C
:103BBC0070034A681343124A90420AD0B0F1804F06
:103BCC0007D0A2F59432904203D002F58062904265
:103BDC0003D123F44073CA68134323F080034A696A
:103BEC00134303608B68C3620B688362044B984277
:103BFC0002D00123436170470B690363F9E700BFEF
:103C0C00002C014040B310B5044690F83D30F3B1A0
:103C1C00022384F83D30214651F8040BFFF7B8FF1E
:103C2C00012384F8463084F83E3084F83F3084F821
:103C3C00403084F8413084F8423084F8433084F8C2
:103C4C00443084F8453084F83D30002010BD80F8B5
:103C5C003C30FDF74DF8DBE70120704710B4846869
:103C6C0024F47F4C42EA03220A4342EA0C028260AB
:103C7C0010BC704790F83C30012B66D010B5044650
:103C8C00012380F83C30022380F83D3002689368B1
:103C9C0023F47F4323F0770393600B68602B40D0B1
:103CAC001CD8402B47D00BD9502B33D1CA6849684C
:103CBC000068FFF711FF50212068FFF732FF29E061
:103CCC00202B06D003D823B1102B02D022E0302BAE
:103CDC0020D119462068FFF724FF1BE0702B0ED073
:103CEC00B3F5005F16D1CB684A6889680068FFF7A6
:103CFC00B5FF2268936843F4804393600AE0CB6875
:103D0C004A6889680068FFF7A9FF2268936843F046
:103D1C0077039360012384F83D30002084F83C0045
:103D2C0010BDCA6849680068FFF7E8FE602120688A
:103D3C00FFF7F7FEEEE7CA6849680068FFF7CCFEAC
:103D4C0040212068FFF7EDFEE4E7022070470000F9
:103D5C0090F83C20012A2CD010B40346012280F8A4
:103D6C003C20022280F83D2002685068946820F0C4
:103D7C00700C086840EA0C0050601A680E488242C9
:103D8C000AD0B2F1804F07D0A0F59430824203D014
:103D9C0000F58060824204D124F0800449682143FC
:103DAC009160012283F83D20002083F83C0010BC78
:103DBC0070470220704700BF002C0140704798B13B
:103DCC0008B50346D0F8B40210B10020C3F8B40211
:103DDC0009B1C3F8B012012183F89C121A7018466D
:103DEC00FDF7CCF8002008BD0220704719B1C0F8CF
:103DFC00B412002070470220704708B5FDF7F2F8A6
:103E0C00002008BD08B5D0F8B4322BB11B68984718
:103E1C0000B908BD0220FCE70220FAE708B5D0F88B
:103E2C00B4325B689847002008BD38B5044600F5ED
:103E3C002A75284600F035F90123C4F89432B4F8F9
:103E4C00AE32C4F8983294F8A81201F01F03012B7B
:103E5C0008D0022B0BD07BB92946204600F0D0FAB3
:103E6C00002038BD2946204600F0FEFAF8E7294626
:103E7C00204600F029FBF3E701F080012046FDF716
:103E8C00CCF8EDE738B504460D4691BB1346D0F897
:103E9C009422032A03D0052A24D0084633E0D0F814
:103EAC006011D0F8642191420DD9891AC0F86011C3
:103EBC008A4206D98AB21946204600F028FC2846C8
:103ECC0021E092B2F7E7D0F8B4321B691BB190F83D
:103EDC009C22032A04D0204600F021FC284612E044
:103EEC009847F8E70021C0F89412FDF796F8284699
:103EFC0009E0D0F8B4329B6933B190F89C22032AC4
:103F0C0004D19847002038BD0220FCE70220FAE7D4
:103F1C0038B504460D46002953D11346D0F89422E7
:103F2C00022A0CD0042A00D01AB980212046FDF7B1
:103F3C0074F894F8A032012B3ED0284638BD026AA2
:103F4C00416A8A421BD8C269B2FBF1F301FB13230D
:103F5C002BB9914203D8D0F898329A421CD3D4F89A
:103F6C00B432DB681BB194F89C22032A21D0802147
:103F7C002046FDF752F8204600F0DCFBD9E7521A38
:103F8C00026292B2194600F0BAFB00231A46194697
:103F9C002046FDF779F8CCE70022114600F0AFFB84
:103FAC000021C4F898120B460A462046FDF76CF81F
:103FBC00BFE720469847DAE7002384F8A03228466A
:103FCC00BCE7D0F8B4325B6933B190F89C22032A79
:103FDC0004D198470020B1E70220AFE70220ADE7FB
:103FEC0070B50446402300221146FDF703F8012565
:103FFC00C4F858514026C4F864613346002280212D
:10400C002046FCF7F7FFA561666284F89C520023FA
:10401C00C4F894326360C4F8A432D4F8B8322BB12B
:10402C00D4F8B4325B68002120469847002070BD5C
:10403C0001740020704790F89C3280F89D32042364
:10404C0080F89C320020704790F89C32042B01D0F1
:10405C000020704790F89D3280F89C32F8E708B544
:10406C0090F89C32032B01D0002008BDD0F8B4325C
:10407C00DB69002BF8D09847F6E70346002002E0F6
:10408C000130C0B201331A78002AF9D1704708B553
:10409C004B88012B00D008BDC0F8A43200F03FFBC8
:1040AC00F9E70B7803704B7843708B78CA7803EB85
:1040BC00022343800B794A7903EB022383808B79AB
:1040CC00CA7903EB0223C380704710B504468021E4
:1040DC00FCF7A3FF00212046FCF79FFF10BD30B575
:1040EC0083B005460C460023ADF806304A88130A07
:1040FC00013B062B00F2A480DFE803F004182CA28D
:10410C00A2869300D0F8B0321B680DF10601007C3A
:10411C009847BDF806201AB1E388002B40F0948034
:10412C00E388002B00F09A8003B030BD037C43B9C8
:10413C00D0F8B4329B6A0DF1060098470223437005
:10414C00E7E7D0F8B432DB6A0DF10600984702239A
:10415C004370DEE7D2B2052A52D8DFE802F0031032
:10416C001D2A3744D0F8B0325B6823B10DF106013B
:10417C00007C9847CDE72146FFF7A7FFD4E7D0F89E
:10418C00B0329B6823B10DF10601007C9847C0E763
:10419C002146FFF79AFFC7E7D0F8B032DB6823B1AE
:1041AC000DF10601007C9847B3E72146FFF78DFF20
:1041BC00BAE7D0F8B0321B6923B10DF10601007CCF
:1041CC009847A6E72146FFF780FFADE7D0F8B0325D
:1041DC005B6923B10DF10601007C984799E72146F4
:1041EC00FFF773FFA0E7D0F8B0329B6923B10DF154
:1041FC000601007C98478CE72146FFF766FF93E7A2
:10420C002146FFF762FF8FE7037C33B9D0F8B43255
:10421C005B6B0DF1060098477BE72146FFF755FFD6
:10422C0082E7037C43B9D0F8B4321B6B0DF1060066
:10423C009847072343706CE72146FFF746FF73E767
:10424C002146FFF742FF6FE79A4228BF1A46ADF8A6
:10425C0006200146284600F045FA61E7284600F0A2
:10426C005EFA61E738B504468B88F3B9CB88E3B9BD
:10427C004B887F2B19D803F07F0590F89C32032BC9
:10428C000CD080F89E522946FCF7EEFE204600F03A
:10429C0046FA35B1022384F89C3209E0FFF715FF8A
:1042AC0006E0012384F89C3202E02046FFF70DFF64
:1042BC0038BD000038B504460D468978284B197076
:1042CC0001290ED890F89C32022B0ED0032B21D052
:1042DC002946FFF7FAFE224B19782046FFF79EFD80
:1042EC0002E02946FFF7F1FE38BD81B1416003239E
:1042FC0080F89C32FFF786FD022803D0204600F0A0
:10430C000EFAF1E729462046FFF7DFFEECE700F056
:10431C0006FAE9E789B1436899421DD0D9B2FFF793
:10432C007DFD0F4B197861602046FFF76BFD02286D
:10433C000DD0204600F0F3F9D6E7022380F89C322A
:10434C004160FFF76BFD204600F0E9F9CCE7294608
:10435C002046FFF7BAFEC7E700F0E1F9C4E700BF5B
:10436C002C0A002008B5CB88012B0AD190F89C327E
:10437C00022B09D9032B11D10122011D00F0B2F936
:10438C0001E0FFF7A2FE08BD5BB23BB10146002382
:10439C0041F8083F012200F0A5F9F4E7FFF795FE7C
:1043AC00F1E708B590F89C32013B022B12D8CB8870
:1043BC00022B0CD10123C360D0F8A4320BB1032320
:1043CC00C360022200F10C0100F08CF908BDFFF76C
:1043DC007CFEFBE7FFF779FEF8E708B590F89C3216
:1043EC00013B022B09D84B88012B00D008BD0023C0
:1043FC00C0F8A43200F093F9F8E7FFF766FEF5E792
:10440C0008B50B7803F06003202B05D0402B03D0AC
:10441C0043B1FFF75AFE03E0D0F8B4329B689847DB
:10442C00002008BD4B78092B1BD8DFE803F01117CF
:10443C001A141A08051A0E0BFFF751FEF0E7FFF7D6
:10444C0011FFEDE7FFF736FFEAE7FFF78BFFE7E732
:10445C00FFF7A7FFE4E7FFF71AFEE1E7FFF7BDFF61
:10446C00DEE7FFF732FEDBE738B505460C460B7886
:10447C0003F06003202B06D0402B04D01BB1FFF7B8
:10448C0024FE002038BD95F89C32013B022B16D837
:10449C002379012B0ED8D5F8B4329B6821462846D7
:1044AC009847E388002BECD10028EAD1284600F08D
:1044BC0036F9E6E721462846FFF707FEE1E72146F5
:1044CC002846FFF702FEDCE770B505468B880C78B2
:1044DC0004F06004202C07D0DAB2402C04D05CB17C
:1044EC00FFF7F3FD002405E0D5F8B4329B682846AD
:1044FC0098470024204670BD202C09D04E78012E00
:10450C0033D0032E0AD0002E55D0FFF7DEFDF1E795
:10451C00D0F8B4329B6898470446EBE790F89C328D
:10452C00022B04D0032B11D0FFF7CFFDE2E70AB129
:10453C00802A03D12846FFF7C8FDDBE71146FCF7BC
:10454C006CFD80212846FCF768FDD3E74B8823B926
:10455C001AB1802A01D0CB881BB1284600F0DFF8B5
:10456C00C8E71146FCF759FDF7E790F89C32022B8F
:10457C0004D0032B11D0FFF7A8FDBBE70AB1802AAA
:10458C0003D12846FFF7A1FDB4E71146FCF745FD22
:10459C0080212846FCF741FDACE74B88002BA9D1C4
:1045AC0012F07F0F03D1284600F0B9F8A2E71146AC
:1045BC00FCF73BFDF7E790F89C02022806D0032895
:1045CC0029D02846FFF781FD344693E70AB1802AAB
:1045DC0013D113F0800F15D102F07F0202EB82028F
:1045EC00910001F5A8712944043100230B600222CB
:1045FC00284600F077F834467CE72846FFF765FD3F
:10460C00344677E702F07F0202EB82029100103110
:10461C0029440431E9E75BB2002B1FDB02F00F00E9
:10462C0000EB800005EB8000D0F8580120B3002B84
:10463C0027DB02F07F0303EB83039C0004F5A874D3
:10464C002C4404340AB1802A24D100232360022292
:10465C002146284600F046F834464BE702F00F009E
:10466C0000EB800005EB800080690028DFD1284634
:10467C00FFF72BFD34463DE72846FFF726FD344671
:10468C0038E702F07F0303EB83039C0010342C44C7
:10469C000434D7E711462846FCF7CFFC10B10123B0
:1046AC002360D4E700232360D1E7D0B170B50D4669
:1046BC0016460446FFF7E1FC431C5B009BB23380BB
:1046CC002B7003236B70022307E001345A1CD2B207
:1046DC00E8540233DBB20021A95420780028F4D12D
:1046EC0070BD704708B513460222C0F89422C3610E
:1046FC0003620A460021FCF7BFFC002008BD08B588
:10470C0013460A460021FCF7B7FC002008BD08B58B
:10471C0013460A460021FCF7B7FC002008BD08B57B
:10472C000423C0F8943200231A461946FCF7A4FC63
:10473C00002008BD08B50523C0F8943200231A46A2
:10474C001946FCF7A1FC002008BD000029230380BA
:10475C0000487047700100202923038000487047EF
:10476C0044010020292303800048704718010020D1
:10477C00D0F8B83200201873704700000A23038069
:10478C000048704700010020022901D0002070472A
:10479C0010B504460C4B1B7813F0020F0DD0002201
:1047AC004FF400510948FFF718F90123064A02217A
:1047BC002046FCF769FC002010BD01224FF400518B
:1047CC000248FFF70AF9F0E72E0A0020001001401A
:1047DC0070B582B0D0F8B8520023ADF806300C7822
:1047EC0014F0600425D0202C72D14B78023B092B9D
:1047FC001BD8DFE803F014091A1A1A1A1A1A0F0533
:10480C008B782B60002466E001222946FFF76AFFB3
:10481C00002460E04B881B0A6B6000245BE00122E3
:10482C00291DFFF75FFF002455E0FFF74EFC022423
:10483C0051E04E780B2E47D8DFE806F00646464688
:10484C004646154646462D3B90F89C32032B03D02A
:10485C00FFF73BFC02243EE002220DF10601FFF7BC
:10486C0041FF344637E04B881B0A222B09D0212B01
:10487C000DD1CA88092A28BF09221849FFF732FF2F
:10488C0029E0CA88A22A28BFA2221549F6E7FFF719
:10489C001CFC02241FE090F89C32032B03D0FFF782
:1048AC0014FC022417E0012205F10801FFF71AFF9E
:1048BC0011E090F89C32032B02D18B78AB600AE0AC
:1048CC00FFF703FC022406E0FFF7FFFB022402E0E3
:1048DC00FFF7FBFB0224204602B070BD0C01002048
:1048EC005C00002010B504468121FCF78EFB0023F0
:1048FC00E362D4F8B80220B1FCF7D2FB0023C4F871
:10490C00B832002010BD000038B50446092303223C
:10491C008121FCF76FFB0125E5622B460322022166
:10492C002046FCF767FB2B460E4A02212046FCF77B
:10493C00ABFB1020FCF7B0FBC4F8B80278B1002335
:10494C000373D4F8B8221560D4F8B8225360D4F8A5
:10495C00B8229360D4F8B8221373184638BD0220DD
:10496C00FCE700BF2D0A002030B583B0D0F8B84268
:10497C0034B390F89CC2BCF1030F23D1257B0DB14D
:10498C00012020E000958DF8045002258DF8005090
:10499C009DF8185005F007058DF801508DF80210A0
:1049AC008DF803208DF804300123237305236A4608
:1049BC008121FCF761FB30B100232373022002E05C
:1049CC00022000E0022003B030BD10B5D0F8B84290
:1049DC009CB190F89C32032B11D1237B0BB101209D
:1049EC000EE00123237309230A468121FCF744FBC3
:1049FC0030B100232373022002E0022000E00220E9
:104A0C0010BD10B582B0D0F8B842D4B190F89C3239
:104A1C00032B18D1237B0BB1012015E0ADF804302A
:104A2C0003238DF804308DF8051001232373022322
:104A3C0001AA8121FCF720FB30B100232373022053
:104A4C0002E0022000E0022002B010BD0C480D492B
:104A5C000D4A002302E0D458C4500433C4188C42CD
:104A6C00F9D30A4A0A4C002301E013600432A24233
:104A7C00FBD3FFF7A3F9FBF787FBFBF787FD704729
:104A8C0000000020D4010020F04C0008D4010020CC
:104A9C00300A0020FEE70000F8B500BFF8BC08BCE7
:104AAC009E467047F8B500BFF8BC08BC9E467047E0
:104ABC0000000000000000000000000000000000EA
:104ACC000000000000000000000000000400004096
:104ADC0008000000000000000000000000000000C2
:104AEC0000000000000000000000000000000000BA
:104AFC0000000000000000000000000000000000AA
:104B0C000000000000000000000000000000000099
:104B1C000000000000000000000000830000000006
:104B2C000000010000001000000200000020000046
:104B3C00002A494C280031004B4D4E4A524F5150DF
:104B4C00002E004630340000000000000000000081
:104B5C0000000000000000002F13452D00003865F8
:104B6C00392B2935332C00001F1E3A3B141A161D05
:104B7C0021203C3D0807041B15223E3F170906194E
:104B8C001C2440230A0B0E11182541420C0D051054
:104B9C0027264344120F37360000000000000000A7
:104BAC0000000000000000000000000000000000F9
:104BBC00000C014000020000000801400100000050
:104BCC00000C01400001000000080140080000003A
:104BDC00000C014001000000000C0140020000002C
:104BEC000008014000020000000801400001000024
:104BFC000008014002000000000801400400000011
:104C0C00000C014020000000000C014010000000CE
:104C1C000008014010000000000C014008000000DA
:104C2C000008014020000000000801404000000086
:104C3C000008014080000000000801400004000052
:104C4C00000C014000040000000C014000080000B2
:104C5C00000C014000800000000C014000400000EE
:104C6C00000C014000200000000C0140001000006E
:104C7C0053544D33322048756D616E20696E7465E6
:104C8C00726661636500000053544D6963726F6511
:104C9C006C656374726F6E696373000048494420DD
:104CAC00436F6E666967000048494420496E74651D
:104CBC0072666163650000000203040506070809BB
:104CCC000A0B0C0D0E0F101000000000000000006D
:0C4CDC00000000000102030406070809A4
:044CE800750100084A
:044CEC004D0100086E
:104CF0001A03000000000000000000000000000097
:104D0000000000000000000000000000040309048F
:104D1000120100020000004083042B570002010230
:104D200003010000650D0008710D0008350E000834
:104D3000110E0008FD0D0008510E0008750E000848
:104D400001000000100000000024F4000501090229
:104D5000A10185020901A100050919012903150016
:104D600025017501950381027501950581010501F4
:104D7000093009311581257F7508950281060938AA
:104D80001581257F750895018106C0C005010906BA
:104D9000A1018501050719E029E715002501750125
:104DA0009508810275089501810119002965150092
:104DB0002565750895068100050819012903150068
:104DC0002501750195039102750195059101C005B5
:104DD0000C0901A101850315002501750195030941
:104DE000E909EA09E28102750195058103C0000025
:104DF0000A06000200000040010000000921110124
:104E0000000122A20000000009022900010100E0C7
:104E10003209040000020300000009211101000111
:104E200022A2000705810309000A07050203010009
:104E30000A00000009022900010100E03209040013
:104E400000020300000009211101000122A2000755
:104E500005810309000A0705020301000A0000009A
:104E600009022900010100E03209040000020300E8
:104E7000000009211101000122A200070581030998
:104E8000000A0705020301000A0000001549000896
:104E9000F1480008DD4700080000000000000000A5
:104EA0007D47000895470008000000000000000052
:104EB00000000000654700085947000871470008D6
:044EC0008947000816
:0400000508004A594C
:00000001FF
